:107000000C9434380C9451380C9451380C945138F9
:107010000C9451380C9451380C9451380C945138CC
:107020000C9451380C9451380C9451380C945138BC
:107030000C9451380C9451380C9451380C945138AC
:107040000C9451380C9451380C9451380C9451389C
:107050000C9451380C9451380C9451380C9451388C
:107060000C9451380C94513811241FBECFEFD8E046
:10707000DEBFCDBF11E0A0E0B1E0E8E5FFE702C070
:1070800005900D92A830B107D9F711E0A8E0B1E062
:1070900001C01D92A53BB107E1F70E9453380C9443
:1070A000AA3F0C940038A2E0B0E0E9E5F8E30C94C4
:1070B000753F219A29988BE091E00E949B3C80E0EB
:1070C00091E00E949A3A892B09F054C0EE24FF24E3
:1070D00087016E010894C11CD11CBB24BA9485E3BE
:1070E00091E06FEF70E040E850E00E94A33F85E33D
:1070F00091E060E870E0A6010E94B23929813A81EE
:10710000F901EB5CFE4FC90102C0B19201968038D3
:107110009105D8F32998F701A5E3B1E0AF014F5FDE
:107120005F4F94918D91981731F481E0A53BB8079A
:1071300079F0FA01F3CF232B51F0C801B7010E9477
:10714000FF3EC801B70145E351E00E940D3F299A77
:1071500080E890E0A0E0B0E0E80EF91E0A1F1B1FD7
:1071600090E0E91690E7F90690E0090790E019072A
:1071700009F0B5CF20E030E0F901859194918F5F5F
:107180009F4F11F0F9010995FFCFA0E0B0E0EBECC3
:10719000F8E30C94763F6C01C0910801D09109018D
:1071A000FC01118210822481358146815781213072
:1071B00031054105510509F45CC08E819F81A88588
:1071C000B985281739074A075B0708F052C021150F
:1071D00031054105510539F48881833021F42E852C
:1071E0003F8548895989F60120873187428753872F
:1071F000211531054105510581F18EEFE82E8FEF04
:10720000F82E8FEF082F8FEF182FE20EF31E041FBA
:10721000151F8E819F81A885B9850297A109B109A3
:10722000E816F9060A071B0728F020E030E040E0E6
:1072300050E017C02A8130E040E050E0C801B701BB
:107240000E942B3F9B01AC018A899B89AC89BD8937
:10725000280F391F4A1F5B1F04C02E853F854889B0
:107260005989F601248735874687578720E030E023
:1072700002C021E030E0C901CDB7DEB7E8E00C94F0
:10728000923FA4E0B0E0E7E4F9E30C947A3F8B018D
:107290009C01E0910801F0910901623071058105BE
:1072A000910508F455C086819781A085B18508179E
:1072B00019072A073B0708F04BC08081823021F074
:1072C000833009F045C01EC07727632F522F412F0E
:1072D00082859385A485B585480F591F6A1F7B1F3A
:1072E00098013070220F331FCE01019602E010E0AA
:1072F0000E94EB3D892B61F589819A819C0140E0D8
:1073000050E02AC0B901A80127E076956795579506
:1073100047952A95D1F782859385A485B585480F31
:10732000591F6A1F7B1F98012F773070220F331F60
:10733000220F331FCE01019604E010E00E94EB3DC6
:10734000892B31F429813A814B815C815F7004C0C3
:1073500021E030E040E050E0B901CA012496E4E0C9
:107360000C94963FA0E0B0E0E8EBF9E30C946E3F9C
:107370003C016B014A01C0910801D0910901FA0159
:1073800011821082209719F426E030E0CDC0898167
:1073900080FD03C025E030E0C7C02A8D3B8D4C8DB9
:1073A0005D8D8E899F89A88DB98D281B390B4A0B5D
:1073B0005B0BCB01A0E0B0E0281739074A075B0759
:1073C00008F469015301412C72E0572EA3C02E89A5
:1073D0003F89488D598DDA01C9019170A070B07054
:1073E0000097A105B10509F060C0DA01C90169E0A3
:1073F000B695A795979587956A95D1F7FA80FA94EF
:10740000F822D1F4211531054105510529F46E8D7D
:107410007F8D88A199A106C06AA17BA18CA19DA1A5
:107420000E944139623071058105910508F479C0E7
:107430006AA37BA38CA39DA300910801109109016D
:107440002AA13BA14CA15DA12250304040405040B8
:10745000F80186819781A085B1850297A109B109BC
:10746000281739074A075B0708F05BC0628170E0A4
:1074700080E090E00E942B3F9B01AC01F8018289E3
:107480009389A489B589280F391F4A1F5B1F2115CD
:1074900031054105510509F444C02F0D311D411D31
:1074A000511D2EA33FA348A759A72E893F893170AC
:1074B000C201821B930B76018C159D0508F47C019B
:1074C0006114710419F480E090E001C0C5014EA17F
:1074D0005FA168A579A587010E94EB3D892B09F57D
:1074E000C701A0E0B0E02E893F89488D598D280F53
:1074F000391F4A1F5B1F2E8B3F8B488F598FAE0C55
:10750000BF1CCE18DF08F401808191818E0D9F1D74
:1075100091838083C114D10409F059CF20E030E079
:1075200003C0198221E030E0C901CDB7DEB7E0E148
:107530000C948A3FAEE3B0E0E0EAFAE30C946C3FCF
:107540004C0160900801709009016114710419F4F4
:1075500026E030E092C1F3011182CE010196988BB2
:107560008F8703C00894811C911CF40180818032B4
:10757000C9F38F3219F40894811C911C198A1A8A54
:107580001B8A1C8AF4018081813250F4CE010D9651
:107590000E94C5389C011D8E009709F43BC16DC146
:1075A000B0E24B2EADE12A2E312C2C0E3D1ECE0129
:1075B00088969EAF8DAFAF85B889FD01CD010B9642
:1075C00001C04192E817F907E1F738E0552420E0BF
:1075D00002C03BE028E0F401E50DF11D90815394D9
:1075E0009132B0F09F32A1F09E3211F0231728F0B3
:1075F000383071F49E3269F30BC0892F81568A317D
:1076000008F49052FD01E20FF11D90832F5FE3CF4C
:107610001B961C921B97913218F491E01B969C9339
:10762000CE010D960E94C5389C01009709F0CEC08E
:10763000498D5A8D6B8D7C8D2D853E852F703070D8
:10764000F5E0220F331FFA95E1F7C10100E210E0E7
:107650000E94EB3D892B09F01EC18D8D882309F412
:10766000B3C048A543FD11C02F853889F101D90168
:107670008DAD9EADE817F90709F404C190818C9196
:10768000981719F431961196F3CF009108011091D3
:107690000901AD84BE840894A11CB11CA114B104DD
:1076A00009F492C0298D3A8D4B8D5C8D21153105E1
:1076B0004105510509F488C0C5018F709070892B70
:1076C00009F07FC02F5F3F4F4F4F5F4F298F3A8F99
:1076D0004B8F5C8F4D895E896F89788D411551057F
:1076E0006105710541F4F80184819581A816B906F8
:1076F00008F06AC066C0F801828190E001979501A8
:10770000E4E036952795EA95E1F782239323892BC8
:1077100009F057C0CB01BA010E9441399B01AC016D
:10772000623071058105910518F421E030E04EC00A
:10773000F80186819781A085B185281739074A0706
:107740005B0708F041C02D8B3E8B4F8B588FC0904C
:107750000801D09009016EEFE62E6FEFF62E6FEF65
:10776000062F6FEF162FE20EF31E041F151FF601F2
:1077700086819781A085B1850297A109B109E81694
:10778000F9060A071B0728F020E030E040E050E04F
:1077900014C0F601228130E040E050E0C801B7019A
:1077A0000E942B3F9B01AC01F60182899389A48939
:1077B000B589280F391F4A1F5B1F298F3A8F4B8FBE
:1077C0005C8FBE86AD8634CF23E030E023303105B8
:1077D00009F053C0EF85F8898385882309F458C0E0
:1077E0004CC044FF55C0850C911CF10184899589DA
:1077F000A0E0B0E0DC0199278827228D338D40E09E
:1078000050E0822B932BA42BB52B898B9A8BAB8BBF
:10781000BC8BD1CE8D8D882371F188A584FD2BC0C2
:10782000BE01635E7F4FFB0184899589A0E0B0E0D3
:10783000DC0199278827228D338D40E050E0822B90
:10784000932BA42BB52BF301868F978FA0A3B1A305
:10785000FB01848D958DA68DB78DF301828F938F5B
:10786000A48FB58F168A178A108E118E81E08183BE
:1078700020E030E002C023E030E0C901EE96E2E112
:107880000C94883FF9018385882309F4AACFC2CFDD
:1078900024E030E0F2CF21E030E0EFCFA0E0B0E034
:1078A000E4E5FCE30C94743FB82EA92E6A017B0139
:1078B0002EEF31E002E010E00E94EB3D892B11F049
:1078C00023E033C0CB2DDA2D8881998185559A4AE2
:1078D00011F022E02AC08B2D9A2DB701A60126E3D4
:1078E00030E002E010E00E94EB3D892B39F4888102
:1078F00099818654914411F420E017C08B2D9A2D64
:10790000B701A60122E530E002E010E00E94EB3D65
:10791000892B11F021E009C020E0888199818654EB
:10792000914409F421E081E02827822FCDB7DEB70A
:10793000EAE00C94903FA4E2B0E0E1EAFCE30C94AE
:10794000703F5C011092090110920801009709F440
:10795000EDC00E94373E80FF03C022E030E0EEC061
:107960004E010894811C911CC40140E050E060E08D
:1079700070E00E944E3C813021F0CC24DD24760161
:107980001BC0C40140E050E060E070E02EEB31E04D
:1079900000E110E00E94EB3D892B09F0CAC08D8107
:1079A000882309F4C9C0C984DA84EB84FC84C40147
:1079B000B701A6010E944E3C833009F4BAC0882367
:1079C00009F0BAC0CE010196B701A6012DE030E062
:1079D00004E210E00E94EB3D892B09F0AAC08A85E1
:1079E0009B85BC0180E090E06115710581059105E2
:1079F00021F4688D798D8A8D9B8D2C8130E040E05B
:107A000050E00E942B3F3B014C018A819B81A0E00A
:107A1000B0E0C80ED91EEA1EFB1EF501C286D38651
:107A2000E486F586898182832D813E813583248396
:107A30008F8198857C0100E010E0E114F1040105DC
:107A4000110521F4EC88FD880E891F898A819B81AC
:107A5000A0E0B0E0E81AF90A0A0B1B0BE618F708D9
:107A60000809190944E0369527954A95E1F7C901B7
:107A7000A0E0B0E0E81AF90A0A0B1B0BF50122811D
:107A800030E040E050E0C801B7010E944A3F2E5F5D
:107A90003F4F4F4F5F4FF501268337834087518714
:107AA000273FFFE03F07F0E04F07F0E05F0708F4F3
:107AB00043C0275F3F4F4040504010F083E001C07B
:107AC00082E0F5018083833029F488A199A1AAA1DD
:107AD000BBA109C0F50182859385A485B585860D76
:107AE000971DA81DB91D86879787A08BB18BF501BF
:107AF0008481958124E0969587952A95E1F7A0E009
:107B0000B0E02285338544855585820F931FA41FDD
:107B1000B51F860D971DA81DB91D828B938BA48B55
:107B2000B58B1182B0920901A092080120E030E0EB
:107B300005C021E030E002C027E030E0C901A49692
:107B4000EEE00C948C3FDF92EF92FF920F931F9325
:107B5000D82E7A018B0187FF0BC087E740E050E009
:107B600060E070E00E94A33D823078F58FE7D82274
:107B70000E94ED3E8D2D0E94F23E812F9927AA276B
:107B8000BB270E94F23EC801AA27BB270E94F23EF3
:107B9000BB27A12F902F8F2D0E94F23E8E2D0E9489
:107BA000F23E80E4D81611F485E906C088E4D816C0
:107BB00011F487E801C081E00E94F23E1AE00E94C1
:107BC000F13E87FF02C01150D1F71F910F91FF9036
:107BD000EF90DF900895A0E0B0E0E1EFFDE30C94BA
:107BE000763F6C01790180910A0183FD07C039E07D
:107BF000440F551F661F771F3A95D1F781E50E9404
:107C0000A33D882351F5C0E4DCE90E94F13E8F3F9B
:107C100019F42197D1F721C08E3FF9F4E114F10452
:107C200029F0E7010E94F13E2197E1F7E8010E9467
:107C3000F13EF60181936F012197C9F7CC27DD272B
:107C4000CE19DF09CE5FDD4FC01BD10B0E94F13E84
:107C50002197E1F7C0E0D0E002C0C1E0D0E00E948F
:107C6000F03ECE01CDB7DEB7E8E00C94923FA4E041
:107C7000B0E0EDE3FEE30C94763F2A9A229A0E944C
:107C8000E03E14E60E94E53E1150E1F71AE00E9442
:107C9000F03E1150E1F780E440E050E060E070E039
:107CA0000E94A33D813009F069C088E44AEA51E0AE
:107CB00060E070E00E94A33D8130E1F56E01089420
:107CC000C11CD11C76018E010B5F1F4F0E94F13E3B
:107CD000F70181937F01E017F107C1F78B818130B4
:107CE00009F04CC08C818A3A09F048C000E117E2E3
:107CF00006C00E94E53E0150104009F43FC089EEE5
:107D000040E050E060E070E40E94A33D882389F7E2
:107D100042C00E94F13EF60181936F01EE15FF050E
:107D2000C1F7898186FD03C0E4E0FE2E28C07CE017
:107D3000F72E25C089EE40E050E060E070E00E9440
:107D4000A33D823028F061E4E62EFF24F39404C0C2
:107D500059EEE52E42E0F42E00E117E205C00E9444
:107D6000E53E0150104051F08E2D40E050E060E0C3
:107D700070E00E94A33D882391F718C0FF24F09281
:107D80000A010E94F03E80E0FF2009F481E0249681
:107D9000E8E00C94923F8AE740E050E060E070E059
:107DA0000E94A33D882309F4B4CFE8CF80E540E0EA
:107DB00052E060E070E00E94A33D8823F9F6DFCF37
:107DC000549A239A259A2C9A089580EA31973197EC
:107DD000319700008A95D1F7089502D05C9801C0D0
:107DE0005C9A8FEF98E087FD2B9A87FF2B98880F7E
:107DF0001C9983952D9A2D989A95A9F70895FB01C2
:107E000083E080935700E8958091570080FDFCCF78
:107E100081E180935700E89508950F921F92FB012E
:107E2000DA0190E40D901D9081E080935700E89571
:107E300032969A95B9F7FB0185E080935700E89553
:107E40008091570080FDFCCF81E180935700E89539
:107E50001F900F900895629FD001739FF001829F41
:107E6000E00DF11D649FE00DF11D929FF00D839FC9
:107E7000F00D749FF00D659FF00D9927729FB00D66
:107E8000E11DF91F639FB00DE11DF91FBD01CF0179
:107E900011240895A1E21A2EAA1BBB1BFD010DC0DF
:107EA000AA1FBB1FEE1FFF1FA217B307E407F507AA
:107EB00020F0A21BB30BE40BF50B661F771F881F86
:107EC000991F1A9469F760957095809590959B011C
:107ED000AC01BD01CF0108952F923F924F925F9266
:107EE0006F927F928F929F92AF92BF92CF92DF92CA
:107EF000EF92FF920F931F93CF93DF93CDB7DEB72F
:107F0000CA1BDB0B0FB6F894DEBF0FBECDBF0994C2
:107F10002A88398848885F846E847D848C849B8419
:107F2000AA84B984C884DF80EE80FD800C811B8127
:107F3000AA81B981CE0FD11D0FB6F894DEBF0FBE56
:107F4000CDBFED010895DC0101C06D93415050405B
:087F5000E0F70895F894FFCF5B
:087F58006170702E62696E0079
:040000030000700089
:00000001FF
