:107000000C9434380C9451380C9451380C945138F9
:107010000C9451380C9451380C9451380C945138CC
:107020000C9451380C9451380C9451380C945138BC
:107030000C9451380C9451380C9451380C945138AC
:107040000C9451380C9451380C9451380C9451389C
:107050000C9451380C9451380C9451380C9451388C
:107060000C9451380C94513811241FBECFEFD8E046
:10707000DEBFCDBF11E0A0E0B1E0EEECFFE702C063
:1070800005900D92A830B107D9F711E0A8E0B1E062
:1070900001C01D92A53BB107E1F70E946C380C942A
:1070A000E53F0C94003840E951E013C0299A28EEDE
:1070B00033E0FA013197F1F721503040D1F72998A8
:1070C00020E233E0FA013197F1F721503040D1F757
:1070D0008150882359F70895A2E0B0E0E2E7F8E391
:1070E0000C94B03F219A8BE091E00E94D63CE5E3FE
:1070F000F1E030E08FEF93E0F999FECF92BD81BDD2
:10710000F89A20B52F3F29F021933F5F01973D303A
:1071100099F7E32FF0E0EB5CFE4F1082332319F078
:1071200085E391E002C080E091E00E94D53A892B8E
:1071300009F05BC0EE24FF2487016E010894C11C96
:10714000D11CBB24BA9485E391E06FEF70E040E876
:1071500050E00E94DE3F85E391E060E870E0A60128
:107160000E94ED3949815A814115510561F1942FF1
:1071700020E030E006C0F0E0EB5CFE4FB0822F5F15
:107180003F4F822FE22FE90F840F87FFF4CFF701E3
:10719000A5E3B1E09F012F5F3F4F94918D91981728
:1071A00031F441E0A53BB40771F0F901F3CF299A1E
:1071B000C801B7010E943A3FC801B70145E351E059
:1071C0000E94483F299880E890E0A0E0B0E0E80EF7
:1071D000F91E0A1F1B1F90E0E91690E7F90690E0E0
:1071E000090790E0190709F0AECF20E030E0F9017F
:1071F000859194918F5F9F4F11F0F9010995FFCF11
:10720000A0E0B0E0E6E0F9E30C94B13F6C01C0917E
:107210000801D0910901FC0111821082248135817D
:1072200046815781213031054105510509F45CC083
:107230008E819F81A885B985281739074A075B0782
:1072400008F052C0211531054105510539F48881F6
:10725000833021F42E853F8548895989F60120879E
:10726000318742875387211531054105510581F149
:107270008EEFE82E8FEFF82E8FEF082F8FEF182F5D
:10728000E20EF31E041F151F8E819F81A885B9850C
:107290000297A109B109E816F9060A071B0728F0A9
:1072A00020E030E040E050E017C02A8130E040E0CC
:1072B00050E0C801B7010E94663F9B01AC018A897A
:1072C0009B89AC89BD89280F391F4A1F5B1F04C0E9
:1072D0002E853F8548895989F60124873587468759
:1072E000578720E030E002C021E030E0C901CDB78F
:1072F000DEB7E8E00C94CD3FA4E0B0E0E2E8F9E3CB
:107300000C94B53F8B019C01E0910801F0910901BB
:10731000623071058105910508F455C08681978119
:10732000A085B185081719072A073B0708F04BC04D
:107330008081823021F0833009F045C01EC077275C
:10734000632F522F412F82859385A485B585480FE1
:10735000591F6A1F7B1F98013070220F331FCE0107
:10736000019602E010E00E94263E892B61F589819A
:107370009A819C0140E050E02AC0B901A80127E0B1
:1073800076956795579547952A95D1F78285938588
:10739000A485B585480F591F6A1F7B1F98012F7759
:1073A0003070220F331F220F331FCE01019604E0ED
:1073B00010E00E94263E892B31F429813A814B81CD
:1073C0005C815F7004C021E030E040E050E0B90132
:1073D000CA012496E4E00C94D13FA0E0B0E0E3EFD2
:1073E000F9E30C94A93F3C016B014A01C0910801EB
:1073F000D0910901FA0111821082209719F426E038
:1074000030E0CDC0898180FD03C025E030E0C7C0F9
:107410002A8D3B8D4C8D5D8D8E899F89A88DB98D70
:10742000281B390B4A0B5B0BCB01A0E0B0E02817FF
:1074300039074A075B0708F469015301412C72E0E0
:10744000572EA3C02E893F89488D598DDA01C90175
:107450009170A070B0700097A105B10509F060C0EF
:10746000DA01C90169E0B695A795979587956A9560
:10747000D1F7FA80FA94F822D1F4211531054105AB
:10748000510529F46E8D7F8D88A199A106C06AA14E
:107490007BA18CA19DA10E947C3962307105810580
:1074A000910508F479C06AA37BA38CA39DA30091E6
:1074B0000801109109012AA13BA14CA15DA1225014
:1074C000304040405040F80186819781A085B185C9
:1074D0000297A109B109281739074A075B0708F085
:1074E0005BC0628170E080E090E00E94663F9B019B
:1074F000AC01F80182899389A489B589280F391FC5
:107500004A1F5B1F211531054105510509F444C08F
:107510002F0D311D411D511D2EA33FA348A759A773
:107520002E893F893170C201821B930B76018C1525
:107530009D0508F47C016114710419F480E090E069
:1075400001C0C5014EA15FA168A579A587010E9470
:10755000263E892B09F5C701A0E0B0E02E893F89BE
:10756000488D598D280F391F4A1F5B1F2E8B3F8B6B
:10757000488F598FAE0CBF1CCE18DF08F4018081F4
:1075800091818E0D9F1D91838083C114D10409F0D8
:1075900059CF20E030E003C0198221E030E0C9017A
:1075A000CDB7DEB7E0E10C94C53FAEE3B0E0EBED64
:1075B000FAE30C94A73F4C01609008017090090118
:1075C0006114710419F426E030E092C1F3011182D4
:1075D000CE010196988B8F8703C00894811C911C63
:1075E000F40180818032C9F38F3219F40894811C30
:1075F000911C198A1A8A1B8A1C8AF40180818132A3
:1076000050F4CE010D960E9400399C011D8E00970A
:1076100009F43BC16DC1B0E24B2EADE12A2E312CF5
:107620002C0E3D1ECE0188969EAF8DAFAF85B889DA
:10763000FD01CD010B9601C04192E817F907E1F772
:1076400038E0552420E002C03BE028E0F401E50DDD
:10765000F11D908153949132B0F09F32A1F09E328F
:1076600011F0231728F0383071F49E3269F30BC003
:10767000892F81568A3108F49052FD01E20FF11DE5
:1076800090832F5FE3CF1B961C921B97913218F4C7
:1076900091E01B969C93CE010D960E9400399C01AF
:1076A000009709F0CEC0498D5A8D6B8D7C8D2D854C
:1076B0003E852F703070F5E0220F331FFA95E1F709
:1076C000C10100E210E00E94263E892B09F01EC194
:1076D0008D8D882309F4B3C048A543FD11C02F85C3
:1076E0003889F101D9018DAD9EADE817F90709F48C
:1076F00004C190818C91981719F431961196F3CFAB
:107700000091080110910901AD84BE840894A11C68
:10771000B11CA114B10409F492C0298D3A8D4B8D8E
:107720005C8D211531054105510509F488C0C5015D
:107730008F709070892B09F07FC02F5F3F4F4F4FA4
:107740005F4F298F3A8F4B8F5C8F4D895E896F8990
:10775000788D411551056105710541F4F801848169
:107760009581A816B90608F06AC066C0F801828142
:1077700090E001979501E4E036952795EA95E1F7C9
:1077800082239323892B09F057C0CB01BA010E94B1
:107790007C399B01AC01623071058105910518F4BB
:1077A00021E030E04EC0F80186819781A085B18547
:1077B000281739074A075B0708F041C02D8B3E8B1D
:1077C0004F8B588FC0900801D09009016EEFE62EC4
:1077D0006FEFF62E6FEF062F6FEF162FE20EF31EF0
:1077E000041F151FF60186819781A085B185029738
:1077F000A109B109E816F9060A071B0728F020E0DD
:1078000030E040E050E014C0F601228130E040E07A
:1078100050E0C801B7010E94663F9B01AC01F60130
:1078200082899389A489B589280F391F4A1F5B1F54
:10783000298F3A8F4B8F5C8FBE86AD8634CF23E085
:1078400030E02330310509F053C0EF85F889838596
:10785000882309F458C04CC044FF55C0850C911CC6
:10786000F10184899589A0E0B0E0DC01992788279F
:10787000228D338D40E050E0822B932BA42BB52B2F
:10788000898B9A8BAB8BBC8BD1CE8D8D882371F17C
:1078900088A584FD2BC0BE01635E7F4FFB018489F8
:1078A0009589A0E0B0E0DC0199278827228D338DEF
:1078B00040E050E0822B932BA42BB52BF301868F55
:1078C000978FA0A3B1A3FB01848D958DA68DB78D55
:1078D000F301828F938FA48FB58F168A178A108E2B
:1078E000118E81E0818320E030E002C023E030E0AF
:1078F000C901EE96E2E10C94C33FF9018385882328
:1079000009F4AACFC2CF24E030E0F2CF21E030E08A
:10791000EFCFA0E0B0E0EFE8FCE30C94AF3FB82E6F
:10792000A92E6A017B012EEF31E002E010E00E94F7
:10793000263E892B11F023E033C0CB2DDA2D888130
:10794000998185559A4A11F022E02AC08B2D9A2DF3
:10795000B701A60126E330E002E010E00E94263ED7
:10796000892B39F4888199818654914411F420E05F
:1079700017C08B2D9A2DB701A60122E530E002E059
:1079800010E00E94263E892B11F021E009C020E082
:10799000888199818654914409F421E081E0282767
:1079A000822FCDB7DEB7EAE00C94CB3FA4E2B0E083
:1079B000ECEDFCE30C94AB3F5C01109209011092DA
:1079C0000801009709F4EDC00E94723E80FF03C0D9
:1079D00022E030E0EEC04E010894811C911CC401ED
:1079E00040E050E060E070E00E94893C813021F08E
:1079F000CC24DD2476011BC0C40140E050E060E0EF
:107A000070E02EEB31E000E110E00E94263E892B71
:107A100009F0CAC08D81882309F4C9C0C984DA84F9
:107A2000EB84FC84C401B701A6010E94893C833029
:107A300009F4BAC0882309F0BAC0CE010196B70193
:107A4000A6012DE030E004E210E00E94263E892BE2
:107A500009F0AAC08A859B85BC0180E090E0611591
:107A600071058105910521F4688D798D8A8D9B8D35
:107A70002C8130E040E050E00E94663F3B014C0129
:107A80008A819B81A0E0B0E0C80ED91EEA1EFB1ED1
:107A9000F501C286D386E486F586898182832D81AD
:107AA0003E81358324838F8198857C0100E010E03E
:107AB000E114F1040105110521F4EC88FD880E891B
:107AC0001F898A819B81A0E0B0E0E81AF90A0A0BBD
:107AD0001B0BE618F7080809190944E036952795A5
:107AE0004A95E1F7C901A0E0B0E0E81AF90A0A0BEB
:107AF0001B0BF501228130E040E050E0C801B701E6
:107B00000E94853F2E5F3F4F4F4F5F4FF501268309
:107B1000378340875187273FFFE03F07F0E04F075B
:107B2000F0E05F0708F443C0275F3F4F40405040FC
:107B300010F083E001C082E0F5018083833029F4F6
:107B400088A199A1AAA1BBA109C0F501828593854D
:107B5000A485B585860D971DA81DB91D86879787B5
:107B6000A08BB18BF5018481958124E09695879552
:107B70002A95E1F7A0E0B0E022853385448555855C
:107B8000820F931FA41FB51F860D971DA81DB91D39
:107B9000828B938BA48BB58B1182B0920901A0923A
:107BA000080120E030E005C021E030E002C027E01D
:107BB00030E0C901A496EEE00C94C73FDF92EF924B
:107BC000FF920F931F93D82E7A018B0187FF0BC072
:107BD00087E740E050E060E070E00E94DE3D8230E8
:107BE00078F58FE7D8220E94283F8D2D0E942D3FE7
:107BF000812F9927AA27BB270E942D3FC801AA27BA
:107C0000BB270E942D3FBB27A12F902F8F2D0E94B5
:107C10002D3F8E2D0E942D3F80E4D81611F485E96A
:107C200006C088E4D81611F487E801C081E00E94FC
:107C30002D3F1AE00E942C3F87FF02C01150D1F760
:107C40001F910F91FF90EF90DF900895A0E0B0E0BA
:107C5000ECE2FEE30C94B13F6C01790180910A01E2
:107C600083FD07C039E0440F551F661F771F3A9503
:107C7000D1F781E50E94DE3D882351F5C0E4DCE9BF
:107C80000E942C3F8F3F19F42197D1F721C08E3FDE
:107C9000F9F4E114F10429F0E7010E942C3F219747
:107CA000E1F7E8010E942C3FF60181936F012197D3
:107CB000C9F7CC27DD27CE19DF09CE5FDD4FC01B0A
:107CC000D10B0E942C3F2197E1F7C0E0D0E002C029
:107CD000C1E0D0E00E942B3FCE01CDB7DEB7E8E097
:107CE0000C94CD3FA4E0B0E0E8E7FEE30C94B13F94
:107CF0000E94193F14E60E94203F1150E1F71AE05C
:107D00000E942B3F1150E1F780E440E050E060E03A
:107D100070E00E94DE3D813009F069C088E44AEAE3
:107D200051E060E070E00E94DE3D8130E1F56E01DF
:107D30000894C11CD11C76018E010B5F1F4F0E945D
:107D40002C3FF70181937F01E017F107C1F78B8189
:107D5000813009F04CC08C818A3A09F048C000E1BA
:107D600017E206C00E94203F0150104009F43FC0B6
:107D700089EE40E050E060E070E40E94DE3D882340
:107D800089F742C00E942C3FF60181936F01EE15E6
:107D9000FF05C1F7898186FD03C0E4E0FE2E28C0FF
:107DA0007CE0F72E25C089EE40E050E060E070E016
:107DB0000E94DE3D823028F0FF24F39461E4E62E39
:107DC00004C052E0F52E49EEE42E00E117E205C0B2
:107DD0000E94203F0150104051F08E2D40E050E0B5
:107DE00060E070E00E94DE3D882391F718C0FF2418
:107DF000F0920A010E942B3F80E0FF2009F481E00D
:107E00002496E8E00C94CD3F8AE740E050E060E043
:107E100070E00E94DE3D882309F4B4CFE8CF80E50E
:107E200040E052E060E070E00E94DE3D8823F9F619
:107E3000DFCF549A239A259A229A2A9A2C9A089547
:107E400080EA31973197319700008A95D1F70895EC
:107E500002D05C9801C05C9A8FEF98E087FD2B9A66
:107E600087FF2B98880F1C9983952D9A2D989A95AA
:107E7000A9F70895FB0183E080935700E89580916E
:107E8000570080FDFCCF81E180935700E89508956D
:107E90000F921F92FB01DA0190E40D901D9081E09A
:107EA00080935700E89532969A95B9F7FB0185E0E3
:107EB00080935700E8958091570080FDFCCF81E1C9
:107EC00080935700E8951F900F900895629FD0010E
:107ED000739FF001829FE00DF11D649FE00DF11D85
:107EE000929FF00D839FF00D749FF00D659FF00D34
:107EF0009927729FB00DE11DF91F639FB00DE11D21
:107F0000F91FBD01CF0111240895A1E21A2EAA1B69
:107F1000BB1BFD010DC0AA1FBB1FEE1FFF1FA21739
:107F2000B307E407F50720F0A21BB30BE40BF50B36
:107F3000661F771F881F991F1A9469F760957095BF
:107F4000809590959B01AC01BD01CF0108952F92C2
:107F50003F924F925F926F927F928F929F92AF92D9
:107F6000BF92CF92DF92EF92FF920F931F93CF9326
:107F7000DF93CDB7DEB7CA1BDB0B0FB6F894DEBFBD
:107F80000FBECDBF09942A88398848885F846E84E3
:107F90007D848C849B84AA84B984C884DF80EE802D
:107FA000FD800C811B81AA81B981CE0FD11D0FB636
:107FB000F894DEBF0FBECDBFED010895DC0101C016
:0E7FC0006D9341505040E0F70895F894FFCFC4
:087FCE006170702E62696E0003
:040000030000700089
:00000001FF
